:020000040800F2
:10000000B005002001010008EB2F0008BF2C0008FC
:10001000E92F000875130008553C00080000000097
:10002000000000000000000000000000A5350008EE
:10003000E114000800000000A9300008053700089E
:100040001B0100081B0100081B0100081B01000820
:100050001B0100081B0100081B0100081B01000810
:100060001B0100081B0100081B0100081B01000800
:100070001B0100081B0100081B0100081B010008F0
:100080001B0100081B0100081B0100081B010008E0
:100090001B0100081B0100081B0100081B010008D0
:1000A0001B0100081B0100081B0100081B010008C0
:1000B0001B0100081B0100081B0100081B010008B0
:1000C0001B0100081B0100081B0100081B010008A0
:1000D0001B010008493C00081B0100081B01000827
:1000E0001B0100081B0100081B010008DFF80CD0F1
:1000F00000F096FE004800471D460008B0050020AD
:100100000648804706480047FEE7FEE7FEE7FEE7B1
:10011000FEE7FEE7FEE7FEE7FEE7FEE781370008C1
:10012000ED000008202A04DB203A21FA02F0002129
:10013000704721FA02F3D040C2F1200291400843F7
:1001400019467047D2B201E000F8012B491EFBD2DC
:1001500070470022F6E710B513460A4604461946D2
:10016000FFF7F0FF204610BD10B5002200E0521C42
:10017000835C8C5CA34201D1002BF8D1D8B2E1B2F0
:10018000401A10BD034611F8012B00F8012B002A7C
:10019000F9D11846704700000FB400B58DB010A912
:1001A00009900B9000914FF0FF300A9000200C90C6
:1001B00005480690054807906A4609A80F9900F07F
:1001C000B9FB0DB05DF814FB510900086F09000878
:1001D0002DE9FF5F1D464FF0FF3BD5E901469146F3
:1001E0005F464FF00008A9697F1C01988847296A7B
:1001F000824688470028F6D1BAF1FF3F0CD024F49C
:10020000C064002E19DD600614D5BAF12B0F09D099
:10021000BAF12D0F0ED103E0584604B0BDE8F09FAF
:1002200044F48064A9697F1C01988847761E824641
:10023000002E02DDBAF1300F03D0B9F1000F26D045
:1002400032E0A969761E44F400747F1C0198884747
:100250008246002E05DDBAF1780F06D0BAF1580FAC
:1002600003D0B9F1000F10D01EE0B9F1000F02D099
:10027000B9F1100F18D1A969761E24F400747F1CFF
:10028000019888478246102002E0082000E00A20FA
:10029000814609E008FB0908A969761E44F4007448
:1002A0007F1C019888478246002E05DD494650464E
:1002B00000F02BFB0028EDDAE96901988847A005DA
:1002C00002D46FF00100A8E7E00725D1600613D53E
:1002D000600502D5C8F1000000E0404629680A1D0B
:1002E0002A600968220501D5087015E0220701D5AA
:1002F000088011E008600FE02868011D296000688F
:10030000210502D580F8008006E0210702D5A0F87B
:10031000008001E0C0F8008038467EE72DE9FF4FFD
:10032000087883B09946FF2805D0491C2D2804D0B1
:100330000024002008E000200BE00124F9E700EB96
:10034000800003EB4000491C0B78FF2BF7D104B170
:10035000404200230293147819461D462D2C01D0EB
:100360002B2C04D1521C2D2C13D000240294AA460D
:100370001478FF2C0FD00A25A3FB057801FB05811B
:100380004FF0000C03FB0C11521CE3194AEB010166
:10039000EEE70124EAE7814453EA010002D019F5AF
:1003A000C87F06DA03980021C0E9001107B0BDE854
:1003B000F08F0025AE4E2F46DFF8B882184600F0C9
:1003C000AFFCCDE90001B9F1000002DAC9F1000487
:1003D00000E004460023A74A1AEB030B42EB045A41
:1003E00012E0E00707D02A4633463846414600F07F
:1003F000ADFB074688462A4633461046194600F0AC
:10040000A5FB05460E466410002CEAD1DDE900018B
:10041000B9F1000F5A46534606DA00F009FC3A4695
:10042000434600F005FC05E000F090FB3A464346E9
:1004300000F08CFB029A0AB181F00041039AC2E9F4
:100440000001B3E72DE9FF4F1F468DB0D7E9014604
:100450004FF0FF382E2045464FF000090B90B96948
:100460006D1C0E988847396A824688470028F6D165
:10047000BAF1FF3F0AD024F4D064002E11DDBAF1A6
:100480002B0F08D0BAF12D0F0BD102E0404611B06E
:100490008DE744F48064B9696D1C0E9888478246E4
:1004A000761E6946600501D52D2000E02B208DF8D1
:1004B000000001F1010B0DF1200809E0B9696D1C84
:1004C0000E98884782460F9844F40074761E0560A3
:1004D000002E02DDBAF1300FF0D00B998A453ED1E3
:1004E00044F0800406E00F99681CA9F1010944F466
:1004F00000740860B9696D1C761E0E9888478246A4
:100500003028F0D02BE00B998A4505D1200603D482
:1005100044F08004761E18E0504603F0BDFC08B39A
:100520000DF11301761E44F400748B4508D2AAF134
:1005300030000BF8010B200607D5A9F1010003E0FC
:10054000200602D409F101008146A00502D50F99C9
:10055000681C0860B9696D1C0E9888478246002E99
:10056000D1DC53E0002E51DDBAF1650F02D0BAF1B3
:10057000450F4BD1A00549D5B9696D1C24F44074D1
:10058000761E0E9888478246002E0CDD2B2804D05C
:10059000BAF12D0F07D144F48074B9696D1C0E981F
:1005A00088478246761EE00501D52D2100E02B21EB
:1005B00008F8011BCDF82C8021E00DF12901761EF1
:1005C00044F4007488450CD2AAF1300010F0FF000A
:1005D00088F8000002D10B99884509D908F1010873
:1005E00006E0E00501D5244801E042F20F708146A3
:1005F000B9696D1C0E98884782460F980560002ED9
:1006000004DD504603F048FC0028D6D1F9690E9865
:100610008847FF208BF8000088F800000020069033
:1006200007904B466A4608A906A8FFF777FEA00583
:1006300002D46FF001002AE714F0240F0AD0E0077B
:1006400014D1DDE906123868031D3B600068C0E97B
:1006500000120BE0DDE9060100F0C4FB0146E007F3
:1006600004D13868021D3A600068016028460EE730
:10067000000014400000F03FF1D8FFFFF0B480EA22
:100680000102D40F4200B2EB410F02D202460846EB
:1006900011464A0042D0C30DDDB2C1F3C752AD1AB4
:1006A000202D35DAC1F3160141F4000204B15242A3
:1006B000C5F1200602FA06F12A411044B3EBD05FDF
:1006C00023D0C4B1012DA0EBC35009DCF0BC4FF026
:1006D000004202EAC352DBB200F5000000F061B94B
:1006E000400000F1807000EBC350A0F1807040EA40
:1006F000D170490009E0490841EAC071A0EBC3503C
:1007000000F50000400800EBC350F0BC00F040B919
:100710006142012202EB4101001BF6E7F0BC704789
:1007200081F00041AAE780F00040A7E780EA0102DB
:1007300010B502F00043400022D04A001FD0010E45
:1007400001EB1261C0F35600C2F3560240F4000000
:1007500042F40002A0FB022000047F39140400D000
:10076000401C50EA124001D44000491EC2B20C069F
:1007700004EBD010401C4008802A02D003E0002087
:1007800010BD20F00100002900DA0020184310BD40
:1007900030B480EA010202F0004530F0004221F05E
:1007A000004013D090B1C30DD40DC2F31601C0F3B5
:1007B0001600E41A41F4000140F400027D34914235
:1007C00001D3641C00E04900002C02DA30BC002098
:1007D00070474FF400000023914201D3891A03436C
:1007E00040084FEA4101F7D151B1914202D14FF097
:1007F000004105E002D24FF0010101E06FF001017C
:1008000003EBC450284430BC00F0C2B8420005D00D
:10081000C0F3C7525242914201DC0020704700EB06
:10082000C150704796230022114600F0BAB820F05C
:100830000040C10DC0F3160040F400007F2901DA2A
:1008400000207047962903DCC1F19601C84070472B
:1008500096398840704700F0004230F000400AD0DE
:10086000C10D01F56071C0F3160042EA0151C208E2
:1008700040071143704700200146704730B50B46D2
:10088000014600202022012409E021FA02F59D42C0
:1008900005D303FA02F5491B04FA02F52844151E94
:1008A000A2F10102F1DC30BD2DE9F05F0546002028
:1008B00092469B4688460646814640241BE02846D1
:1008C000414647462246FFF72DFC53465A46C01A7A
:1008D000914110D311461846224600F0B3FA2D1A62
:1008E00067EB01084F4622460120002100F0AAFADA
:1008F00017EB00094E41201EA4F10104DFDC48463D
:1009000031462A464346BDE8F09F3A2800D23038A7
:1009100020F02002412A01D3A2F13700884201D3FE
:100920004FF0FF30704700000268114413780160F7
:1009300018467047D1600449516104491162002191
:100940001161114600F0A4BA29090008870E0008B9
:10095000426842B1016811F8013B23B1521EC0E95F
:100960000012184670470121C160881E7047426816
:100970005AB1C368016843B983688B4205D0491EE8
:10098000521CC0E90012002070474FF0FF30704742
:100990000029A8BF7047401C490008BF20F0010093
:1009A000704710B4B0FA80FC00FA0CF050EA010471
:1009B00004BF10BC704749B1CCF1200421FA04F403
:1009C00011FA0CF118BF012121430843A3EB0C01DC
:1009D000CB1D4FEA00614FEA102042BF002010BC3F
:1009E000704700EBC35010440029A4BF10BC7047EF
:1009F000401C490008BF20F0010010BC70472DE9E1
:100A0000FE4F804681EA0300C00F0C46009021F0A3
:100A1000004123F00045B8EB0200A94105D2404651
:100A2000214690461C460B46024623F000401043E8
:100A300047D0270DC7F30A00C3F30A510290401AAA
:100A4000019040286BDAC3F3130040F4801B009838
:100A5000924620B10023D2EB030A63EB0B0B019803
:100A60005946C0F14002504600F0ECF906460D46EA
:100A700050465946019A00F0F4F910EB0800614124
:100A8000002487EA115284EAE7731A4340D0009A9F
:100A900062B3019A012A4FEA075215DC001B61EB91
:100AA00002014FF0004202EA0752CDE90042001C69
:100AB00041F5801132462B4600F08FFB03B0BDE8B4
:100AC000F08F40462146F9E7001B61EB0201001C54
:100AD00041F5801300185B412018A2F5001747EB81
:100AE000030140EAD570B6196D4111E06D084FEA77
:100AF000360645EAC0754FEA0752001B61EB02015A
:100B0000001C41F5801149084FEA3000001951419D
:100B100032462B4603B0BDE8F04F00F04FBB0098C3
:100B2000012240000023D0EB020263EBE073009847
:100B300021464FEAE074B8EB000061EB0401E9E7FD
:100B400083F000435BE781F0004158E72DE9FE4F59
:100B500081EA030404F0004421F0004100944FF0C6
:100B6000000B23F0004350EA01045ED052EA030474
:100B70005BD0C3F30A54C1F30A552C44A4F2F334F6
:100B80000194A0FB0254C1F3130141F48011C3F39B
:100B9000130343F4801301FB024400FB034E840A59
:100BA000970A44EA815447EA8357A4FB07680295F1
:100BB0008D0A05FB07854FEA932C04FB0C5427058F
:100BC000029D4FEA065847EA1637B5EB08056EEB6B
:100BD000070C870E920E47EA811742EA8312A7FBA1
:100BE0000201B6EB0B0164EB00042B0D43EA0C335E
:100BF0005E1844EB1C50DA465146E7FB0201C5F390
:100C000013044FEA0B3343EA14534FEA0432019CB6
:100C100043EA0603A4F10C040294009CCDE900B45D
:100C200000F0DBFA03B0BDE8F08F00200146F9E7E1
:100C30002DE9F04D81EA030404F0004B21F000455A
:100C400014464FF0000A23F0004150EA050220D07C
:100C500054EA01021DD0C5F30A570246C5F3130337
:100C6000C1F31300C1F30A5640F4801543F4801316
:100C7000A7EB0608101BD64608F2FD3873EB0500FB
:100C800002D308F1010801E092185B41B8F1000FAE
:100C900003DA00200146BDE8F08D00204FF48011FA
:100CA000064684460EE0171B73EB050705D3121B9F
:100CB00063EB050306434CEA010C49084FEA300098
:100CC00092185B4150EA0107EDD152EA030012D0BD
:100CD00082EA040083EA0501084305D0101BAB41FA
:100CE00006D20122002306E000224FF0004302E07A
:100CF0006FF0010253101AEB06004CEB085110EB99
:100D00000A0041EB0B01BDE8F04D00F057BAC10FEE
:100D100080EAE0700844CA0796230021FFF741BE2D
:100D20000EB540F2334202920022CDE90022134672
:100D300000F053FA03B000BDC1F30A52C1F313012E
:100D400040F2FF3341F480119A4202DA002001465A
:100D5000704740F233439A42A2F2334202DC5242DD
:100D6000FFF7E0B900F06EB810B500F0004420F0D5
:100D70000040C20DC0F3160040F400007F2A07DADD
:100D80007D2A00DA7D22763A00FA02F1002008E09E
:100D9000962A09DCA2F1760100FA01F1C2F196026D
:100DA000D040FFF7F5FD01E0963A9040002C00D0CE
:100DB000404210BD30B5041E71F1000404DB4FF059
:100DC0000044404264EB0101141E73F1000405DB92
:100DD0001C464FF00043524263EB0403994208BFA4
:100DE000904230BD01F0004330B421F0004150EAA0
:100DF000010206D00A0DA2F56072C1F31301002AA8
:100E000002DC30BC00207047440F44EAC104C1003A
:100E1000E01830BC00EBC250FFF7BABD00207047AD
:100E2000064C074D06E0E06840F0010394E8070037
:100E300098471034AC42F6D3FFF75CF98C4F0008AA
:100E4000AC4F0008202A04DB203A00FA02F100200F
:100E500070479140C2F1200320FA03F319439040F8
:100E60007047202A06DBCB17203A41FA02F043EA0A
:100E7000E07306E041FA02F3D040C2F12002914053
:100E8000084319467047C0B24FF4F05100F0F4B96E
:100E90002DE9F34F8BB04FF0000801F10C000C4628
:100EA0004FF0010B46460DF1080A019062690121DD
:100EB00001989047051E2DD0252D2CD0216A8847FA
:100EC000C0B16269012101989047216A88470028D2
:100ED000F7D1411E62690198904700E0761CA16934
:100EE0000B988847216A88470028F7D1E1690B9859
:100EF0008847DBE7A1690B9888470746A84201D1DC
:100F0000761CD3E7E1690B9888477F1C02D1B8F1C2
:100F1000000F6FD046E1002762693D4639460198CF
:100F200090472A2804D16269012101989047012540
:100F3000DFF884926269012101989047A0F13001A5
:100F40000A290AD24F45E5DC07EB870100EB410790
:100F5000303FDFD445F01005ECE7E90601D46FF02F
:100F600000476C280AD04C2814D0682815D06A286D
:100F70000DD074281CD07A281AD01DE06269012196
:100F8000019890476C2802D045F0040514E045F024
:100F900002050DE045F020050AE062690121019893
:100FA0009047682802D045F0080505E045F4006543
:100FB0006269012101989047C4E9015765283DD035
:100FC00019DC58287AD00CDC452837D004DC2528D9
:100FD00026D0412831D131E046282FD047282CD1C6
:100FE0002CE05B2877D0612828D063287CD0642847
:100FF00023D15AE0D0E06F2848D008DC66281DD005
:1010000067281BD0692821D06E2816D127E07028C8
:1010100045D0732868D0752847D078280DD14DE089
:10102000A1690B988847054625283FF469AFE16917
:101030000B9888476D1C3FF46AAFB3E023466A46BD
:101040006FF001000B99FFF7FDF99EE045F04000BD
:101050006060A80723464FF0000236D43EE0E80760
:101060007FF447AF2068011D21600068290501D584
:1010700006701BE7290701D5068017E7A90703D5E6
:10108000F117C0E9006111E706600FE745F0400085
:101090006060A80723464FF0080216D41EE040F611
:1010A0000E0125EA0100606016E045F04000606036
:1010B000A80723464FF00A0207D40FE045F040008E
:1010C0006060A80708D5234610226FF001000B9935
:1010D000AFF3008059E007E0234610226FF00100D3
:1010E0000B99FFF775F850E04FF000094F464B465B
:1010F000632802D05B2806D040E0E80601D4012036
:10110000A06001273AE062690121019890475E28BA
:1011100005D14FF00109626949460198904721695C
:1011200039B900210A46534643F82120491C0829B1
:10113000FADBB0B3216969B9C11700EBD162531171
:101140000AEB830122F01F02821A01200B689040F3
:1011500003430B6062690121019890475D28E8D143
:10116000B9F1000F09D00020514651F82020D24398
:1011700041F82020401C0828F7DB02AB22460097EC
:101180006FF001000B99AFF3008000280CDA401CCF
:1011900008D1BBF1000F05D04FF0FF300DB0BDE816
:1011A000F08FFFE74046F9E7E90701D108F10108B0
:1011B00006444FF0000B79E6CCCCCC0C10B5141ED5
:1011C00073F1000408DA401C41F1000192185B4100
:1011D0001A4301D120F0010010BD2DE9F04D9246D7
:1011E0009B4611B1B1FA81F202E0B0FA80F22032EE
:1011F0009046FFF727FE04460F4640EA0A0041EA00
:101200000B0153465A46084313D0114653EA0100D6
:1012100019D0C8F140025046FEF784FF05460E463D
:10122000504659464246FFF70DFE084305D00120BF
:1012300004E020463946BDE8F08D0020054346EA2B
:10124000E0762C4337430A986305E40AA0EB0800D4
:101250000022FD0A44EA47540A3002D50020014624
:10126000E9E7010510196941DDE9084500196941FF
:10127000BDE8F04DA2E700007F2801D9002208E078
:10128000064A02EB5002C007127800D1120902F0A0
:101290000F0201209040084070470000BC4E00083B
:1012A00070B5044600688168C943C90717D18168D1
:1012B00021F00101816000F0E7FC05460AE000BF73
:1012C00000F0E2FC401B022804D920688068C0437B
:1012D000C00706D020688068C043C007F0D0002057
:1012E00070BDA06A40F01000A062E06A40F001000A
:1012F000E062012070BD0000F8B5002604460096AB
:1013000000688168C943C9072DD0816841F0010197
:101310008160164816490068B0FBF1F000E0401EFD
:1013200000900028FBD100F0AFFC054616E000BF9E
:1013300000F0AAFC401B022810D920688068C04336
:10134000C0070BD0A06A40F01000A062E06A40F035
:101350000100E06284F824600120F8BD2068806804
:10136000C043C007E4D10020F8BD000064000020A5
:1013700040420F00FEE70021C0EBC00001E000BFCB
:10138000491C8842FBD8704710B500F00DF80122C7
:101390000421044800F073FCBDE81040642000F014
:1013A00067BB0000000801401FB500200290042028
:1013B000009001200190022003906946014800F04E
:1013C00069FB1FBD000801402DE9F0410025124EC8
:1013D0002C4601270421304600F04CFC0028F9D0AF
:1013E0001E20FFF7C8FF0421304600F043FC01280F
:1013F00005D1C4F1070107FA01F02843C5B2042161
:10140000304600F037FC0128F9D0641CE4B2082C07
:10141000E0D32846BDE8F081000801402DE9FF41F6
:10142000FFF7C2FF2C4C00220421204600F027FCCD
:10143000122000F01DFB01220421204600F01FFCB9
:101440001E20FFF798FF00200190029003900420D7
:1014500000906946204600F01DFB0421204600F064
:1014600009FC0128F9D00421204600F003FC0028E3
:10147000F9D0A0460421404600F0FCFB0128F9D039
:10148000FFF7A2FF0746FFF79FFF0646FFF79CFF07
:101490000546FFF799FF0446FFF796FFB91929445F
:1014A000214481420FD10D488770C6700570447089
:1014B000FFF77AFF01220421404600F0E0FB002004
:1014C00004B0BDE8F081FFF76FFF01220421404620
:1014D00000F0D5FB0120F3E70008014020000020C8
:1014E000704772B6FEE70000F8B50024009490F84B
:1014F00024202546012A12D0012280F824204A689F
:101500001F23072A0DD20668776B521E02EB820258
:1015100093409F430B6893401F43776319E0022079
:10152000F8BD06680D2A0AD2376BD21F02EB820281
:1015300093409F430B6893401F43376309E0F76A6A
:101540000D3A02EB820293409F430B6893401F4386
:10155000F7620A68072306680A2A0AD3F7680A3A74
:1015600002EB420293409F438B6893401F43F76016
:1015700008E0376902EB420293409F438B68934037
:101580001F4337610A68102A01D0112A20D1124B5B
:1015900002689A4217D193681B0219D4936843F4E6
:1015A000000393600968102912D10C490C4A09689C
:1015B000B1FBF2F101EB8101490000E0491E00910D
:1015C0000029FBD104E0816A41F0200181620124FD
:1015D00080F824502046F8BD00240140640000201B
:1015E00040420F000068C06C704700002DE9F041D8
:1015F0004FF0000704003D467ED0A06A002628B9BF
:10160000E66284F82460204600F07EF82046FFF76A
:1016100047FEA16AC90600D420B1A06A40F01000BC
:10162000A06269E0A16A21F4885141F00201A1623F
:101630006268E169237B0A4347EA43010A43A168E0
:101640004FF48077B94209D0012907D05FF000013B
:1016500094F814C0BCF1010F02D00AE03946F7E754
:10166000F3B1A36A43F02003A362E36A43F00103EA
:10167000E3622368D3F804C02CF4694C4CEA010CF3
:10168000C3F804C021688B68DFF870C003EA0C035C
:1016900013438B60A168B9420BD0012909D00CE03B
:1016A000DFF85CC0A3690CEB43330B4343F40061E8
:1016B000DFE7218A0D05A5F580152168CB6A23F4A3
:1016C00070032B43CB62216889680E4B194091420D
:1016D00008D1E662A16A21F0020141F00101A16294
:1016E000BDE8F081A06A20F0020040F01000A06286
:1016F000E06A40F00100E0620120F1E7FDF7E1FF60
:1017000000E0FFFFFE0E1FFF00B585B00021009135
:1017100001910291039100680E49884218D10E4848
:10172000816941F400718161816901F40071049162
:10173000816941F0040181618069694600F004001B
:1017400004902020009003200190044800F0A2F9AA
:1017500005B000BD00240140001002400008014017
:101760002DE9F84300270D460446009700F08CFA57
:10177000804620688168C90508D5A06A40F020002D
:10178000A06284F824700120BDE8F8834168C9058F
:1017900003D4C06A10F4700F2AD0022000F012FBAC
:1017A0003B490968B1FBF0F62068036939490B42EF
:1017B0004FEA61014FEAA1121FD1C3684FEA611CD1
:1017C00013EA0C0F19D103690B4225D1C0681042EE
:1017D00022D1142023E0681C0AD02DB100F054FA65
:1017E000A0EB0800A84203D920680068800725D52F
:1017F000206800688007EED52DE003690B4202D116
:10180000C168114206D0026923490A4206D1C06864
:10181000084203D1542002E0292000E0FC20464386
:10182000009816E0681C11D02DB100F02DFAA0EB45
:101830000800A8420AD90098B04207D2A06A40F036
:101840000400A06284F8247003209DE70098401CE7
:101850000090B042E6D321686FF012000860A06AE1
:1018600040F40070A06220688068C0F342400728FE
:101870000CD1207B50B9A06A20F48070A062A06ACD
:10188000C00403D4A06A40F00100A06200207BE7FE
:1018900064000020244992244992240070B5044633
:1018A00090F8240001280DD0012084F8240020465F
:1018B000FFF722FD02004FF0000005D084F824005D
:1018C000104670BD022070BDA16A40F20123994309
:1018D00041F48071A1621F4D23681F49AB4218D1AA
:1018E0000E6816F4702F14D0A66A46F48016A6620D
:1018F0000E68760505D5A66A26F4005646F480568D
:10190000A662A66AF6040AD5E66A26F00606E6622C
:1019100006E0A66A26F48016A6625E68E9E7E06241
:1019200084F824006FF00200186020688368C3F315
:101930004243072B05D1A84208D1096811F4702F42
:1019400004D0816841F480118160B9E7816841F475
:10195000A001F9E7002801400424014010B5044625
:1019600090F82400012807D0012084F824002046A4
:10197000FFF796FC10B107E0022010BDA16A21F428
:10198000885141F00101A162002184F8241010BDAA
:1019900010B590F821100022022905D0042181639E
:1019A00080F82020012010BD01680B6823F00E0391
:1019B0000B6001680B6823F001030B6090F8403066
:1019C000C46B012101FA03F3636080F8211080F8F1
:1019D0002020104610BD000010B590F82110002402
:1019E000022903D00421816301243DE001680A68D3
:1019F00022F00E020A6001680A6822F001020A6001
:101A00001A4A0168914201D1012121E0174A14329A
:101A1000914201D110211BE0144A2832914201D198
:101A2000891515E0114A3C32914201D189140FE029
:101A30000E4A5032914202D14FF4803108E00B4AF5
:101A40006432914202D14FF4801101E04FF0807175
:101A5000064A083A5160012180F82110002180F8DF
:101A60002010416B01B18847204610BD080002409C
:101A700070B5044600F008F90546601C02D0044821
:101A80000078044400F000F9401BA042FAD370BD76
:101A9000580000202DE9F84FDFF8B8910024A9F193
:101AA000040B23460F2709F1040AABF1040EC9E029
:101AB0000125A5402A40AA427DD1674ED1F804C035
:101AC000ACEB0608B44532D014DCBCF1030F3AD0BD
:101AD00009DCBCF1000F2AD0BCF1010F1CD0BCF115
:101AE000020F31D11DE0BCF1110F17D0BCF1120F64
:101AF0002AD119E0B8F5881F19D006DCB8F5803F67
:101B000015D0B8F5801F1FD111E0B8F5001F0ED019
:101B1000B8F5041F18D10AE0CB6815E0CB681B1D8F
:101B200012E0CB6808330FE0CB680C330CE08B6815
:101B30002BB1012B4FF0080303D0456104E00423CF
:101B400002E0056100E00023FF2A01D8064601E01B
:101B500000F104064FEA840501D9A5F12005D6F865
:101B6000008007FA05FC28EA0C0803FA05F548EAA4
:101B70000508C6F800804D68ED0062D5374DAE69A6
:101B800046F00106AE61AD6924F0030605F00105DB
:101B90000095334D06EB050CDCF80850A607360F10
:101BA00007FA06F825EA0805DFF8B880404503D1B2
:101BB0004FF0000817E044E0DFF8AC80404502D168
:101BC0004FF001080FE0DFF8A480404502D14FF04C
:101BD000020808E0DFF89880404502D14FF0030882
:101BE00001E04FF0040808FA06F848EA0508CCF8C6
:101BF00008804D68D9F80060ED024D4601D51643C6
:101C000000E096432E604D68DAF80060AD0255465C
:101C100001D5164300E096432E604D68DBF8006066
:101C2000AD035D4601D5164300E096432E604D6836
:101C3000DEF80060ED03754601D5164300E09643DB
:101C40002E60641C0D682A46E5407FF431AFBDE884
:101C5000F88F00000804014000001110001002403D
:101C60000000014000080140000C0140001001404C
:101C7000001401408068084000D0012070470AB17C
:101C8000016170470904FBE7014880687047000064
:101C90005800002002488168027811448160704732
:101CA00058000020074810B5016841F0100101609C
:101CB000032000F075F80F2000F006F800F024F87B
:101CC000002010BD0020024070B50D4D04464FF4B9
:101CD0007A712878B1FBF0F00A490968B1FBF0F09D
:101CE00000F0A4FB48B9102C07D200222146501E58
:101CF00000F036F800206C6070BD012070BD00005F
:101D000058000020640000200C4808B5816941F0AB
:101D100001018161816901F001010091C16941F016
:101D20008051C161C06900F0805000900448416852
:101D300021F0E06141F00071416008BD00100240F7
:101D400000000140002809DB00F01F020121914042
:101D50004009800000F1E020C0F800117047000049
:101D6000F0B40E4B1B680C46C3F30223C3F1070506
:101D7000042D00D90425191D072901D2002300E0F4
:101D8000DB1E012606FA05F1491E214099409E40BE
:101D9000761E16403143F0BC01F081BF0CED00E02F
:101DA000064900F0070208684FF6FF03184040EAB2
:101DB0000220034A10430860704700000CED00E069
:101DC0000000FA0510B501460020234C012922D05D
:101DD000022939D010291DD161682268D20119D594
:101DE0001E48C1F38342C903805C0AD561681B4A5F
:101DF000C1F34041921E515C194AB2FBF1F14843D4
:101E000001E0184948436168490203D440000321B6
:101E1000B0FBF1F010BD226AC2F30121012903D108
:101E2000920701D5C80310BD022905D1626A920745
:101E300002D549F6404010BD0329FCD12168890331
:101E4000F9D54FF2244010BD00F02AF96168C1F3C2
:101E50008131491C4900DBE700100240544D000865
:101E600000127A0000093D002DE9F843054600788C
:101E7000354CC00754D0E0690026C00008D4E069A2
:101E800040F08050E061E069012600F08050009051
:101E90002E480168C90512D40168804641F480715A
:101EA0000160FFF7F1FE074605E000BFFFF7ECFE1B
:101EB000C01B642823D8D8F80000C005F6D5206AD6
:101EC00010F4407021D0A98801F4407181421CD0E7
:101ED000206A1F49012220F440700A6000220A6033
:101EE0002062C00711D0FFF7CFFE074641F28838C5
:101EF00008E000BFFFF7C8FEC11B414502D903201F
:101F0000BDE8F883206A8007F4D5206A696820F468
:101F10004070084320621EB1E06920F08050E0610B
:101F20002878800705D56068A96820F440400843F8
:101F300060602878C00605D56068E96820F48000F4
:101F4000084360600020DBE70010024000700040A2
:101F5000400442422DE9F0470F46050061D0434E50
:101F6000306800F00700B84209D2306820F007005E
:101F700038433060306800F00700B84251D128681B
:101F80003B4C810712D5400703D5606840F4E06000
:101F900060602878000703D5606840F46050606096
:101FA0006068A96820F0F000084360602878C007E6
:101FB00028D06868012810D02168022810D089072D
:101FC00000292EDA616821F0030101436160FFF707
:101FD0005BFE804641F288390DE021688903EFE716
:101FE0008901EDE7FFF750FEA0EB0801494502D952
:101FF0000320BDE8F0876068696800F00C00B0EB72
:10200000810FEFD1306800F00700B8420BD930687B
:1020100020F0070038433060306800F00700B84215
:1020200001D00120E5E72878400705D56068E96818
:1020300020F4E060084360602878000706D56068F7
:10204000296920F4605040EAC100606000F038F86F
:102050006168084AC1F30311515CC8400649086031
:1020600006480068FFF730FE0020C2E7002002406B
:1020700000100240644D0008640000205C00002055
:102080000448054900684968044AC1F30221515CCB
:10209000C84070476400002000100240744D0008E2
:1020A0000448054900684968044AC1F3C221515CEB
:1020B000C84070476400002000100240744D0008C2
:1020C0000E4A51680E4801F00C03042B11D0082B66
:1020D0000FD10C48C1F38343C903C05C0AD55168D2
:1020E000084AC1F34041921E515C054A5043B0FB7F
:1020F000F1F0704704494843704700000010024067
:1021000000127A00424D000800093D002DE9F84F09
:10211000040070D02078C04DC00749D06868C0F373
:102120008100012807D06868C0F38100022809D126
:102130006868C00306D52868800339D56068002820
:10214000E7D035E06068B0F5803F0BD010B1B0F556
:10215000A02F11D0286820F480302860286820F44F
:10216000802002E0286840F480302860606890B1E8
:10217000FFF78AFD06460AE0286840F480202860C0
:10218000F0E700BFFFF780FD801B642873D8286844
:102190008003F7D50CE0FFF777FD064605E000BFAA
:1021A000FFF772FD801B6428F0D828688003F7D4FD
:1021B00020789A4E80074FF001094FF0000839D57A
:1021C000686810F00C0F07D06868C0F3810002281F
:1021D00009D16868C00306D42868800714D520692F
:1021E000012808D110E02069B0B1C6F80090FFF7CF
:1021F0004BFD074605E00AE1FFF746FDC01B02283C
:10220000C4D828688007F7D52868616920F0F800ED
:1022100040EAC10028600DE0C6F80080FFF734FDF9
:10222000074604E0FFF730FDC01B022823D82868CA
:102230008007F7D4207800072CD57948A169D9B157
:10224000C0F80090FFF720FD074604E0FFF71CFDF3
:10225000C01B02280FD8686A8007F7D571484FF471
:10226000FA510068B0FBF1F0009000BF0098411EE9
:102270000091FAD20EE080E0C0F80080FFF704FD84
:10228000074604E0FFF700FDC01B022875D8686A06
:102290008007F7D42078400760D5E8690027C000A0
:1022A00008D4E86940F08050E861E869012700F04F
:1022B000805000905C480168C90513D401688346CA
:1022C00041F480710160FFF7DFFC824606E000BF49
:1022D000FFF7DAFCA0EB0A0064284ED8DBF8000018
:1022E000C005F5D5E06801280AD008B1052813D04B
:1022F000286A20F001002862286A20F0040002E029
:10230000286A40F001002862E06841F2883B98B1F9
:10231000FFF7BAFC82460BE0286A40F0040028620E
:10232000EEE700BFFFF7B0FCA0EB0A0159455AD811
:10233000286A8007F6D50CE0FFF7A6FC824605E088
:10234000FFF7A2FCA0EB0A0159454CD8286A800788
:10235000F6D41FB1E86920F08050E861E06988B3E5
:102360006968C1F38101022944D00228C6F860805F
:1023700004D0FFF789FC044638E034E0FFF784FC22
:10238000074604E0FFF780FCC01B02282BD8286812
:102390008001F7D4206AB0F5803F05D16868A16854
:1023A00020F4003008436860D4E9080108436968F4
:1023B00021F4741108436860C6F86090FFF764FC6C
:1023C000044606E025E000BFFFF75EFC001B022884
:1023D00009D828688001F7D51BE000BFFFF754FC3F
:1023E000001B022802D90320BDE8F88F286880016D
:1023F000F4D40EE00128F7D06868226A00F4803136
:10240000914204D1616A00F47010884201D0012029
:10241000EAE70020E8E70000001002400000424226
:1024200080044242640000200070004010B5401E4D
:10243000B0F1807F01D3012010BD4FF0E024606136
:102440000F21601701F02BFC0020A0610720206104
:10245000002010BD70B590F83C20012A26D0012440
:1024600080F83C40022280F83D2003685A689D684D
:1024700022F070060A6832435A600D4B02689A4295
:1024800008D0B2F1804F05D00A4B9A4202D00A4BD5
:102490009A4204D1496825F080031943916080F87D
:1024A0003D40002180F83C10084670BD022070BD00
:1024B000002C0140000400400008004010B504005A
:1024C00003D094F83D0010B107E0012010BD0020BA
:1024D00084F83C00204600F01FF8022084F83D00FC
:1024E000211D206801F04EF9012084F8460084F88F
:1024F0003E0084F83F0084F8400084F8410084F8EE
:10250000420084F8430084F8440084F8450084F8CD
:102510003D00002010BD000008B50068B0F1804FFC
:1025200008D10548C16941F00101C161C06900F0ED
:102530000100009008BD00000010024070B5044684
:1025400090F83C000025012817D0012684F83C6053
:10255000022084F83D002068826822F0770222F48D
:102560007F4282600868502838D00DDC20284FD088
:1025700005DC90B3102811D14AE0022070BD30284C
:1025800046D040280AD13BE060282FD070280DD0DB
:10259000B0F5805F03D0B0F5005F12D0012584F85C
:1025A0003D60002084F83C00284670BDCB68D1E92E
:1025B0000121206801F02FF92068816841F077013E
:1025C00009E0CB68D1E90121206801F024F92068F5
:1025D000816841F480418160E1E719E0CA68496897
:1025E000206801F0CDF95021206806E0CA684968EA
:1025F000206801F0D6F96021206801F016F9CEE7D5
:10260000CA684968206801F0BBF940212068F4E7F6
:10261000226801461046F0E700B585B00021009120
:102620000191029103910068B0F1804F11D10A48E5
:10263000816941F0040181618069694600F004000C
:102640000490032000900220019003900348FFF7BC
:1026500021FA05B000BD0000001002400008014052
:1026600070B5044690F83C0000260D4601280FD0B6
:10267000012084F83C006AB1042A1DD0082A2FD01A
:102680000C2A3FD00126002084F83C00304670BD63
:10269000022070BD206801F0D1F82068816941F006
:1026A000080181612068816921F00401816120684D
:1026B00081692A69114311E0206801F0E7F8206878
:1026C000816941F4006181612068816921F4806140
:1026D0008161206881692A6941EA02218161D2E72A
:1026E000206801F0FFF82068C16941F00801C1616C
:1026F0002068C16921F00401C1612068C1692A69AB
:10270000114311E0206801F019F92068C16941F412
:102710000061C1612068C16921F48061C1612068E4
:10272000C1692A6941EA0221C161ACE710B5040020
:1027300003D094F83D0010B107E0012010BD002047
:1027400084F83C00204600F01EF8022084F83D008A
:10275000211D206801F016F8012084F8460084F855
:102760003E0084F83F0084F8400084F8410084F87B
:10277000420084F8430084F8440084F8450084F85B
:102780003D00002010BD704710B50446022249B13B
:1027900004290ED0082913D094F84100012816D03E
:1027A000012010BD94F83E000128F9D184F83E20A4
:1027B0000FE094F83F000128F2D184F83F2008E0B0
:1027C00094F840000128EBD184F8402001E084F81F
:1027D00041200122206801F011F80F492068884249
:1027E00003D1426C42F4004242642068884208D01F
:1027F000B0F1804F05D00949884202D0084988428B
:1028000004D1816801F00701062903D0016841F075
:1028100001010160002010BD002C014000040040B7
:102820000008004070477047F8B501680446086822
:10283000CA684B6910F00F0F4FF0000559D003F034
:10284000010602F49077374365D0C10705D0D10562
:1028500003D5616C41F001016164410705D5D907D9
:1028600003D0616C41F002016164810705D5D9078D
:1028700003D0616C41F004016164010707D502F0E7
:102880002001314303D0616C41F008016164616C47
:1028900000293AD0800604D5900602D5204601F0E2
:1028A000C1F820684069616CC0F38010090700D44A
:1028B00060B3204601F08FF820684069400621D5BA
:1028C0002068143050E8001F21F0400140E8001259
:1028D000002AF5D1E06BA8B16D494163E06BFFF7C9
:1028E0007BF8002811D0E06B416B01B0BDE8F040EF
:1028F000084783060FD593060DD52046BDE8F8405E
:1029000001F090B82046FFF78EFFF8BD2046FFF794
:102910008AFF6564F8BD266B2023012E7CD1C60694
:102920007AD5D60678D508684868009048694FF08F
:102930000206400640D5E16B086840680004000CC0
:10294000E8D0A28D8242E5D9E085886920282DD083
:1029500020680C3050E8001F21F4807140E800121C
:10296000002AF5D12068143050E8001F21F0010141
:1029700040E80012002AF5D12068143050E8001F0A
:1029800021F0400140E80012002AF5D184F84230DD
:10299000256320680C3050E8001F21F0100140E84A
:1029A0000012002AF5D1E06BFEF7F2FF6663A08DFE
:1029B000E18D401A81B22AE0A08DE18D401A81B2EA
:1029C000E08D0028A6D00029A4D022680C3252E85D
:1029D000000F20F4907042E80007002FF5D1206826
:1029E000143050E8002F22F0010240E80027002FA9
:1029F000F5D184F84230256320680C3050E8002F70
:102A000022F0100240E80023002BF5D16663204637
:102A1000FFF708FFF8BDFFE705062BD5150629D5FA
:102A200094F841002128F5D1A068B0F5805F01D16C
:102A30002069B0B1206A411C216221680078486099
:102A4000E08C401E0004000CE084E3D12068C168E3
:102A500021F08001C1602068C16841F04001C1607F
:102A6000D8E7206A0088C0F308004860206A801C0C
:102A70002062E5E74006CDD55006CBD5CA68204692
:102A800022F04002CA6084F8413000F017F9C1E733
:102A9000C739000870B5040004D094F8410000253F
:102AA00010B106E0012070BD84F84050204600F0CF
:102AB00023F8242084F841002068C16821F40051E3
:102AC000C160204601F010F82068016921F49041AE
:102AD00001612068416921F02A0141612068C168D3
:102AE00041F40051C1606564202084F8410084F8FD
:102AF00042006563002070BD30B585B000240094AD
:102B000001940294039400681B49884232D11B4807
:102B1000816941F480418161816901F480410491BE
:102B2000816941F0080181618069154D00F008005C
:102B300004904020009002200190032003906946F9
:102B40002846FEF7A7FF8020CDE900046946284605
:102B50000294FEF79FFF0B48416841F0E06141F0AD
:102B600004014160002211462520FFF7F9F82520D5
:102B7000FFF7E8F805B030BD003801400010024012
:102B8000000C01400000014090F84230202B01D0A1
:102B90000220704721B11AB10023036301F000B88D
:102BA0000120704770B50068184988422CD1184C34
:102BB00000252046217A174A00780A2907D00D29D6
:102BC0001AD03F2813D21154401C207014E098B141
:102BD0001554607820B11078532801D0732806D19D
:102BE0000C4901F14000FDF7CDFA0120607025701D
:102BF00040210848FDF7ADFABDE8704004490122C4
:102C000008310548FFF7C0BF70BD00000038014023
:102C10002400002070000020680100202DE9F84306
:102C2000044690F84100984616460D46202802D0EA
:102C30000220BDE8F88385B17EB1002060642120C8
:102C400084F84100FFF720F8A6848146E684A06856
:102C50002027B0F5805F02D003E00120E9E720697A
:102C600010B12E4600250EE000260CE08021204603
:102C700000F0B1FFA8B9C6B116F8010B2168486091
:102C8000E08C401EE084E08C4B464FF00002CDF813
:102C900000800028EAD14FF04001204600F09BFF61
:102CA00040B184F841700320C3E735F8020BC0F34C
:102CB0000800E3E784F841700020BAE77047FEE7B8
:102CC00010B5FDF7AFFD0449FDF730FDBDE810403C
:102CD0000249FDF75DBD00003333534000F07F45EE
:102CE00010B50446B0F5000F01DA002010BD094808
:102CF0000749806AFDF71AFD2146FDF749FD06499F
:102D000001F00EFDBDE810400449FDF70FBD0000C5
:102D10004FAF38412400002087A7273F0000C8425A
:102D200010B504460848844201DC084810BD084933
:102D30002046FDF7F8FC2146FDF72AFDBDE81040CE
:102D40000449FDF7F3BC00000AD7233C000080BF14
:102D50000000A0403333333F70B504004FF000054E
:102D600001D0002614E0012400260C48FEF796FD51
:102D700064210A48FEF7F4FC0848FEF733FC0544DA
:102D80000648FEF7EBFD0520FEF772FE761CF6B254
:102D9000A642EAD3B5FBF4F080B270BDF00000208B
:102DA00007494A7932B140F23A72904201D8002084
:102DB0004871704740F29E729042FAD30120F7E7C3
:102DC000240000203EB50024114800940194029490
:102DD0000E498460016004730475012505614FF498
:102DE00060214460C161FEF701FC08B1FEF779FB88
:102DF0000520CDE90005694602940548FEF774FBFD
:102E0000002801D0FEF76DFB3EBD0000002401400C
:102E1000F00000202DE9F04786B0002434480094EB
:102E2000019402940394816941F0100181618169E8
:102E300001F010010491816941F0200181618169F3
:102E400001F020010491816941F0040181618169EF
:102E500001F004010491816941F0080181618069F8
:102E6000DFF8908000F008004FF400550490002235
:102E700029464046FEF703FFDFF87C90012204213B
:102E80004846FEF7FCFE002210214846FEF7F7FEFA
:102E9000DFF868A041F21B07002239465046FEF7D2
:102EA000EEFE0126CDE90056022569464046CDE9F1
:102EB0000245FEF7EFFD1420CDE9000669464846BD
:102EC000CDE90245FEF7E6FD082000900C48CDE96B
:102ED000010569464846FEF7DDFDCDE90076694605
:102EE0005046CDE90245FEF7D5FD06B0BDE8F087B6
:102EF000001002400010014000080140000C014099
:102F00000000111010B58EB00024079408940994A5
:102F10000A940B941C2168460C94FDF71AF9234877
:102F20004FF0804101604721C0E9011444F61F6160
:102F3000C0E9031480218161FFF7C0FA08B1FEF7F0
:102F4000D0FA4FF48050079007A91848FFF7F6FA17
:102F500008B1FEF7C6FA1548FFF7E8FB08B1FEF71F
:102F6000C0FA0B940BA911480C94FFF773FA08B13F
:102F7000FEF7B7FA6020009040F2DC50CDE9010482
:102F80000022694609480494FFF76AFB08B1FEF77E
:102F9000A8FA042269460548FFF762FB08B1FEF76C
:102FA000A0FA0248FFF738FB0EB010BD2001002048
:102FB0000C4810B50A4901604FF4E131416000212D
:102FC00081600C22C160C0E904128161C161FFF718
:102FD00061FD002803D0BDE81040FEF782BA10BDA5
:102FE0000038014068010020FEE7FEE72DE9F041CE
:102FF000FEF74AFE054608212048FEF73BFE012861
:103000000FD000261E4CE079864204D0E67131468E
:103010001CA000F021FE0027FEB1A179012011B112
:1030200003E00126EEE7A071E562E16A691AB1F5F5
:10303000FA7F13D305F5FA51C4E90851E178002964
:103040001AD1E07013A000F007FE207930B1012200
:1030500011031248FEF713FE00E0A771E078002884
:103060000AD0002E08D1606A281A05D4E770BDE89E
:10307000F0410BA000F0F0BDBDE8F0810008014078
:10308000240000205049525F50494E3A25640D0AF1
:10309000000000005049522C310D0A00000C014084
:1030A0005049522C300D0A00704700002DE9F047BE
:1030B00090B0824600250220ADF824000D950C95B5
:1030C0000A958DF82C505146B1A000F0C5FD0CAB0F
:1030D0000DAAB4A15046FDF75FF8B44C02285CD0AD
:1030E0000CAB0DAAB2A15046FDF756F8022854D0F9
:1030F00009AE0BAB0AAAB0A150460096FDF74CF8FA
:103100000127032860D00BAB0AAAAFA15046009656
:10311000FDF742F8032857D0AFA15046FDF724F839
:1031200000287ED0ADA15046FDF71EF8002878D0CB
:10313000ABA15046FDF718F800286ED0A9A1504663
:10314000FDF712F80028F8D0A7A15046FDF70CF8BB
:1031500000287DD0A5A15046FDF706F80028F8D03C
:10316000A3A15046FDF700F8DFF898924FF480587D
:1031700000286ED0A4A15046FCF7F6FF002869D0C5
:10318000A4A000F069FDAAA000F066FDB0A000BFF9
:1031900000F062FD10B0BDE8F087B42200210D9868
:1031A00001F028FA0D90B42200210C9801F022FAC7
:1031B0000C900D99C4E90510024620690090ACA05E
:1031C000E36800F049FDE5E70A9810F1FF4F01D3ED
:1031D0000A9503E0AE49884200DD0A91BDF824005B
:1031E000E0B10A2802D90A20ADF82400BDF8242055
:1031F0009DF82C100A9800F015FA0A98FDF72BFBA1
:10320000BDF824309DF82C20CDE9002302460B4662
:10321000A04800F021FDBDE703E025E0ADF82470F3
:10322000E4E71420FFF798FD0546FFF749FD064641
:10323000FFF776FDB0F5000F14DBA062FDF70BFB86
:1032400004460F463046FDF706FB02460B4602E0F9
:103250004BE073E094E0CDE9004729468EA000F0F2
:10326000FBFC97E795A093E7FEF70EFD0546E069A6
:10327000281AB0F57A7F01D295A089E7FEF7CEF83B
:1032800008B199A084E7A0461420E561FFF764FD2A
:103290008146FFF715FD8246FFF742FD0446FFF722
:1032A0001FFD05464846FFF77BFD2846FDF7D3FA8C
:1032B00006460F462046FDF7CEFA04460D46504618
:1032C000FDF7C9FA0A4698F8051002ABCDE9077177
:1032D00083E8750089498A48CA78CDE900298B7846
:1032E0004A78097800F0B8FC54E70520FFF734FD70
:1032F0008146FFF7E5FC8246FFF712FD0546FFF722
:10330000EFFC06464846FFF74BFD3046FDF7A3FAB3
:10331000074688462846FDF79EFA05460E46504663
:10332000FDF799FA024660790B46CDE903808DE8F6
:10333000E000494673A000F08FFC2BE7FEF7A4FCE9
:1033400006467FA000F088FC08218648FEF792FC24
:10335000012805D0206A41F28831301A884207D20C
:103360002571002241464846FEF789FC7EA00FE702
:103370002771002241464846FEF781FC7FA007E7FF
:103380002571002241464846FEF779FC80A0FFE601
:10339000E694B6E588B0E68C87E4BBA4EFBC9A253A
:1033A000730D0A00532C25642C2564002400002092
:1033B000732C25642C2564004D2C25662C2568680B
:1033C000752C2568750000006D2C25662C25686815
:1033D000752C25687500000043414C0063616C004A
:1033E00047455400676574004741530067617300A7
:1033F000484F53542C534C4545505F505245504113
:1034000052450000000C0140484F53542C41574195
:103410004B450000E68C87E4BBA4E6A0BCE5BC8F6E
:10342000E99499E8AFAFEFBC815C720A000000003C
:10343000E888B5E69CBAE68C87E4BBA4E7A4BAE4C6
:10344000BE8BEFBC9A532C39302C39300D0A00005A
:10345000E6ADA5E8BF9BE68C87E4BBA4E7A4BAE48D
:10346000BE8BEFBC9A4D2C39302C312C320D0A001A
:1034700041434B3A5441524745542C25642C256412
:10348000204355523A25642C25640D0A00000000A3
:103490000000B443484F00084D51322043414C20B6
:1034A0004F4B204144433A256420563A252E32663C
:1034B0002052303A252E32660D0A00004D5132203E
:1034C00043414C206661696C6564210D0A0000006F
:1034D000444854313120627573792C2077616974C6
:1034E000203173210D0A00004448543131207265A7
:1034F0006164206572726F72210D0A002000002045
:10350000FC4E00084D51325F4144433A2564204D42
:1035100051325F563A252E3266204D51325F52535A
:103520003A252E3266204D51325F50504D3A252EAD
:10353000326620414C41524D3A25640D0A0000008C
:10354000E694B6E588B0E68C87E4BBA4EFBC9A4865
:103550004F53542C534C4545505F505245504152A7
:10356000450D0A0000080140484F53542C534C4568
:1035700045505F44454E590D0A000000484F5354D2
:103580002C534C4545505F52454144590D0A0000AB
:10359000484F53542C4157414B455F41434B0D0A13
:1035A000000000007047000010B504460846B42231
:1035B000002101F01FF84FF4FA614843B421B0FB39
:1035C000F1F000F5FA70054980B224B1012C01D167
:1035D0000968886310BD0968486310BD2001002098
:1035E00070B50F4C0122E068D4E90461054600F093
:1035F000F2FFE0600122A169206900F0ECFF206188
:10360000E168A94202D00020FFF7CEFF2169B14254
:1036100004D0BDE870400120FFF7C6BF70BD0000B8
:103620002400002070B50D4614460C21FDF7EEF87D
:103630000549FDF7ADF8FDF7FAF881B222462846B4
:10364000BDE8704000F002B80000B4432DE9F0413D
:10365000002490460E460746254616E0012F1ED050
:10366000641EE4B2082C00D30724DFF840C00CEB42
:103670008400C378827841781CF8240000F018F8A0
:103680004046FEF7F5F96D1CADB2B542E6D3BDE894
:10369000F04100231A461946184600F009B8641C88
:1036A000E4B2082CE1D30024DFE700000000002092
:1036B0002DE9F0411D4616460F4608B1012200E0F3
:1036C00000220F4C01212046FEF7D9FA0FB101224A
:1036D00000E0002202212046FEF7D1FA0EB10122BD
:1036E00000E0002210212046FEF7C9FA0DB10122A8
:1036F00000E000222046BDE8F0410821FEF7BFBAF5
:10370000000C0140FEF7C6BA30B593B028216846D8
:10371000FCF71FFD14210AA8FCF71BFD0025012062
:103720000F9510951195010412958DE823000490D2
:103730004FF4E010CDE90810022407946846FEF724
:10374000E5FC08B172B6FEE70AA90F2081E8310056
:103750004FF48060CDE90D0502210AA8FEF7FAFBBF
:1037600008B172B6FEE74FF4004011900F940FA815
:10377000FEF77AFB002801D072B6FEE713B030BD29
:1037800070470000F0B50268194B1A4C1A4D4FF003
:103790008047984205D0B84203D0A04201D0A84249
:1037A00003D122F070064A683243984205D0B842ED
:1037B00003D0A04201D0A84203D122F44074CA68C9
:1037C00022434C6922F08002224302608A68C2626E
:1037D0000A688262984201D109690163012141614D
:1037E0000169C90703D0016921F001010161F0BD40
:1037F000002C0140000400400008004010B501F01A
:103800001F030121046A99408C430462016A9A40B3
:103810001143016210BD10B5846842EA032224F40A
:103820007F440A432243826010BD826822F0700206
:103830000A4342F0070181607047000030B5036A17
:10384000026A22F0010202624268846924F0730570
:103850000C682C4323F002058B682B430A4DA842C9
:103860000BD123F00805CB6822F440722B434D693D
:1038700023F0040315438A692A434260846149683E
:103880004163036230BD0000002C014030B5026A84
:10389000036A23F010030362436884690D6824F40B
:1038A000E64444EA05248D6822F0200242EA05122B
:1038B0000B4DA8420ED1CD6822F0800242EA0512DB
:1038C0004D6923F4406343EA85038D6922F0400289
:1038D00043EA85034360846149688163026230BDC5
:1038E000002C014030B5036A026A22F48072026241
:1038F0004268C46923F4007324F073050C682C43F8
:103900008D6843EA05230C4DA8420ED1CD6823F4FF
:10391000006343EA05234D6922F4405242EA05124E
:103920008D6923F4806342EA05124260C4614968EC
:10393000C163036230BD0000002C014030B5046A51
:10394000026A22F4805202624268C3690D6823F45D
:10395000E64343EA05238D6824F4005444EA053421
:10396000064DA84204D14D6922F4804242EA8512F4
:103970004260C36149680164046230BD002C0140AB
:1039800010B5036A046A24F001040462846924F017
:10399000F00444EA021423F00A020A43846102623A
:1039A00010BD10B5036A046A24F01004046284692F
:1039B00023F0A00324F4704444EA023243EA0111E4
:1039C0008261016210BD10B5406A0021C185C184C9
:1039D000FEF729FF10BD01680C3151E8002F22F4D9
:1039E000907241E80023002BF5D10168143151E8B1
:1039F000002F22F0010241E80023002BF5D1016BDA
:103A0000012909D101680C3151E8002F22F0100280
:103A100041E80023002BF5D1202180F8421000213D
:103A20000163704708B590F84210222901D00220A6
:103A300008BD82684FF480539A4201D1016921B1D7
:103A4000816A9A421BD04AB10AE00268816A5268D0
:103A5000C2F308020A80816A891C08E0026972B117
:103A60000268526802F07F020A70816A491C816212
:103A7000C18D491E0904090CC18503D01BE00268F1
:103A80005268F1E70168CA6822F02002CA60016842
:103A9000CA6822F48072CA6001684A6922F0010291
:103AA0004A61202180F8421000214163026B012A03
:103AB00003D0FFF777F8002008BD016301680C31DF
:103AC00051E8002F22F0100241E80023002BF5D12D
:103AD00001680A68D20602D50A6849680091818D9A
:103AE000FEF7A0FEE7E7000070B504460068016934
:103AF000E26821F44051114301612169A068084343
:103B0000616908432168CA6841F20C639A43024321
:103B1000CA6020684169A26921F440711143416182
:103B20001E492068884202D1FEF7BAFA01E0FEF78A
:103B3000A7FA00EBC00101EB00126068642180006D
:103B4000B2FBF0F3B3FBF1F36FF018067343B2FB73
:103B5000F0F5B2FBF0F605EB8305322303EB051518
:103B6000B5FBF1F5B6FBF1F605F0F00505EB061532
:103B7000B2FBF0F6B2FBF0F0B0FBF1F06FF0180220
:103B8000504306EB800003EB0010B0FBF1F021681E
:103B900000F00F002844886070BD0000003801402C
:103BA00081628285C28500214164222180F8421011
:103BB000016921B10168CA6842F48072CA60016873
:103BC0004A6942F001024A610068C16841F020017F
:103BD000C160002070472DE9F843984617460D460E
:103BE0000446089E24E0701C22D0FEF74DF8A0EB9E
:103BF0000800B0421AD8CEB12068C168490717D56D
:103C0000802D15D0402D13D00168C94309070FD46A
:103C100001680025406800902046FFF7DCFE082080
:103C2000606484F840500120BDE8F8830320FBE77E
:103C30002068006835EA000004D00020B842D2D0E5
:103C40000020F1E70120F9E70148FEF7EDBD000093
:103C500068010020FEE700000FB4054B10B503A972
:103C6000044A029800F020F910BC5DF814FB000033
:103C700005460008680000204100080218BF042023
:103C80000A0E18BF40F001004FF07F4232EA0101F6
:103C900008BF40F00200012808BF0520704709074F
:103CA000090E002804DB00F1E02080F800147047C2
:103CB00000F00F0000F1E02080F8141D7047002193
:103CC0004FF07E50FCF764BDFCF7D8BC00210846DD
:103CD000FCF75EBD61214FF0E040FCF797BD6FF04F
:103CE0005E010807FCF792BD02E008C8121F08C178
:103CF000002AFAD170477047002001E001C1121F6D
:103D0000002AFBD17047000001490860704700009D
:103D10006C0000202DE9FF5F82B00021DDE9043056
:103D2000020DDDF840B0034318D044F61050A2F263
:103D3000FF3242431514119801281FD0A5EB0B0048
:103D4000401C5FEA000A4FF000064E4FDFF8389142
:103D5000B046504615D5CAF1000413E0119801246D
:103D60004AA3012801D16FEA0B010298119AC0E918
:103D70000031C0E9024206B0BDE8F09FCBF100007F
:103D8000DFE704460021404A491842EB0450CDE9E0
:103D9000001012E0E00707D032463B464046494655
:103DA000FCF7D4FE8046894632463B46104619460B
:103DB000FCF7CCFE06460F466410002CEAD1DDE984
:103DC0000401DDE90023BAF1000F06DAFCF7BEFEBC
:103DD00042464B46FCF7BAFE05E0FCF729FF424697
:103DE0004B46FCF725FF04460E460022284BFCF705
:103DF000E1FF03D84FF0FF30014607E00022254BDA
:103E000020463146FCF7FBFDFCF796FF102409E045
:103E1000002C0ADB0A220023FCF746FD039B30320C
:103E20001A55641E50EA0102F2D1641C039AC4F1CF
:103E300011031444119A012A03D0012208430DD121
:103E40000AE0084304D000204FF0110B119072E7F4
:103E5000A3EB0B056D1E0DE05B4504DD4FF000028A
:103E600005F1010504E003DA4FF00002A5F10105B8
:103E7000002AECD002981199C0E90231C0E900454E
:103E800079E70000000014400000F03F300000001F
:103E90000000F0430000E03F30380A2801D2012042
:103EA00070470020704700002DE9FF4F95B09B46FA
:103EB0008946064600250FE2252877D100242746AB
:103EC000F84A0121059400E0044316F8013F203B25
:103ED00001FA03F01042F7D130782A2811D06FF0A0
:103EE0002F033078A0F13002092A16D8059A44F041
:103EF000020402EB820203EB42021044761C05909E
:103F0000EFE759F8042B0592002A03DA504244F4F3
:103F10000054059044F00204761C30782E2816D107
:103F200016F8010F44F004042A280DD06FF02F0278
:103F30003078A0F13003092B09D807EB870302EB97
:103F40004303C718761CF3E759F8047B761C3078D6
:103F50006C280FD006DC4C2817D068280DD06A28B2
:103F600014D104E0742810D07A280FD10DE044F465
:103F700000140AE044F4801401E044F44014727820
:103F8000824202D104F58014761C761C30786628B3
:103F90000BD013DC582877D009DC002875D04528D1
:103FA000F6D04628F4D047281AD19DE118E06328BE
:103FB00035D0642879D0652812D195E1702873D066
:103FC00008DC6728F1D069286FD06E280DD06F28E3
:103FD00006D1B5E073282CD0752875D0782874D018
:103FE0005A46179990476D1C75E1C4F30250022898
:103FF00009D003280DD0D9F8001004280DD00D6089
:1040000009F1040967E1D9F80010EA17C1E9005283
:10401000F6E7D9F800100D80F2E70D70F0E719F817
:10402000041B8DF8001000208DF80100EA460120E5
:1040300003E059F804AB4FF0FF3061074FF0000187
:1040400002D40DE008F101018846B9420FDA80453B
:10405000F8DB1AF808100029F4D108E008F1010192
:1040600088468142FADB1AF808100029F6D1059833
:104070005B46A0EB080721463846179A00F094FAF1
:10408000284400EB080507E04DE029E10DE01AF8AF
:10409000010B5A4617999047B8F10108F7D25B46D1
:1040A00021463846179A13E142E00A220092C4F3EF
:1040B00002524FF0000A022A08D059F804CB032A12
:1040C0004FEAEC710AD00DE029E02AE009F107017E
:1040D00021F00702F2E802C1914609E00FFA8CFCD8
:1040E0004FEAEC71042A03D14FFA8CFC4FEAEC71D1
:1040F000002907DA0A460021DCF1000C61EB02011D
:104100002D2202E0220504D52B228DF80420012265
:1041100003E0E20701D02022F7E7904659E00A21A8
:1041200002E010220DE010214FF0000A00910BE098
:1041300010224FF0000A44F004040827009203E024
:1041400008224FF0000A0092C4F30252022A05D05E
:1041500059F804CB0021032A08D009E009F107012E
:1041600021F00702F2E802C1914605E01FFA8CFC3B
:10417000042A01D10CF0FF0C4FF00008220728D5CB
:10418000702806D0009B83F0100353EA0A0305D081
:104190000EE040228DF80420012208E05CEA0102D2
:1041A00006D030228DF804208DF8050002229046BA
:1041B000009B83F0080353EA0A030AD15CEA010278
:1041C00001D1620705D530228DF804204FF0010897
:1041D0007F1E582804D034A003900EA802900DE052
:1041E00036A0F9E753466046009AFCF75DFB84462B
:1041F0000398825C0298401E029002705CEA010003
:10420000F0D1029806A9081A00F1200A600702D529
:1042100024F4803400E00127574502DDA7EB0A00B3
:1042200000E0002000EB0A01009005984144401A8C
:104230000590E00306D45B462146179A059800F0E6
:10424000B3F90544002706E001A85A46C05D179956
:1042500090476D1C7F1C4745F6DBE0030CD55B46A1
:104260002146179A059800F09FF9054404E0302094
:104270005A46179990476D1C0099481E00900029D6
:10428000F5DC08E0029802995A460078491C029130
:10429000179990476D1CBAF10001AAF1010AF1DCEF
:1042A00065E10000092801003031323334353637FA
:1042B0003839616263646566000000003031323372
:1042C0003435363738394142434445460000000012
:1042D00000F058F90544761C307800287FF4ECADE6
:1042E00019B02846BDE8F08F620700D4062709F10F
:1042F000070222F0070CFCE80223E14603F0004825
:104300005FEA080C02D00FF2702C0DE05FEA045C4B
:1043100002D50FF2682C07E05FEAC47C02D00FF2EE
:10432000602C01E0AFF2700C4FF0FF3823F0004337
:10433000CDF850C065280CD006DC452809D04628A9
:104340001DD047283DD13DE0662818D067287ED192
:1043500038E00021112F01DB112000E0781CCDE9AD
:10436000000106A90EA8FFF7D5FCDDE90F010E9AA2
:1043700003910021009207F1010A04914DE04FF0F2
:1043800000400097CDE9011006A90EA8FFF7C2FC76
:10439000DDE90F0203920E9B11990022DDF80CA0BB
:1043A0000093049211B9791C00EB010AB7EB0A00E3
:1043B00004D4C0F1FF3007F1010A0490AAEB070012
:1043C000019044E0012F00DA01270021112F01DDC7
:1043D000112000E03846CDE9000106A90EA8FFF73C
:1043E00099FCDDE90F010E9A0391002104910092DE
:1043F000BA4621070CD40399514500DA8A46BAF12E
:10440000010F05DD009AAAF10101515C302908D0A5
:10441000B84202DA10F1040F06DA0121CDE90110E9
:1044200015E0AAF10101E9E7002805DC049901443F
:104430000491AAEB000102E0411C514500DD8A46CF
:104440000499401A401C01904FF000400290200750
:1044500004D40198504501DBCDF8048000208DF88C
:104460004F0002980DF14F07B0F1004F25D02B20DF
:104470000E9002984FF0020800280CDA4042029099
:104480002D200E9007E00A210298FCF7F7F9303151
:10449000029007F8011DB8F10001A8F10108F2DC53
:1044A00002980028EFD1791E0E980870307800F03D
:1044B000200040F0450007F8020D12A8C01B00F1D3
:1044C00007081498007800B1012000EB0A01019858
:1044D00001EBE07105984144401A401E0590E0034D
:1044E00006D45B462146179A059800F05DF805440E
:1044F0001498007818B15A46179990476D1CE0033C
:1045000024D55B462146179A059800F04DF80544DE
:104510001CE00498002807DBDDE90301884203DD85
:104520000098405C179901E0179930205A4690474F
:10453000049805F10105401C04900198401E01906B
:1045400004D12E205A46179990476D1CBAF10001EC
:10455000AAF1010ADDDC05E017F8010B5A461799AC
:1045600090476D1CB8F10001A8F10108F4DC5B462E
:104570002146179A0598ABE62D0000002B0000009D
:10458000200000002DE9F041044600251E46174694
:10459000880404D405E039462020B0476D1C641E11
:1045A000F9D52846BDE8F0812DE9F0410446002503
:1045B0001E469046C80301D5302700E02027880416
:1045C00004D505E041463846B0476D1C641EF9D558
:1045D0002846BDE8F081002A00DC0122884204DA86
:1045E0001044884200DD08467047FDDD801A88428D
:1045F000F9DB7047884201DA084670479042FCDDDB
:104600001046704713B56423012269460248FEF73D
:1046100005FB00981CBD00006801002090B0FDF76C
:1046200041FBFFF771F8FEF7F5FBFEF76BFCFEF7B9
:10463000BFFCFEF7C7FBFCF7A7FE00212248FEF7F0
:10464000A3F804212048FEF79FF8204C5A210020AF
:10465000E16021616161A161FEF7A6FF012021698E
:10466000FEF7A2FF012204F108011948FEF78CFAB7
:1046700018A0FFF7F1FA22A0FFF7EEFAFDF704FB0E
:1046800000224FF480512448FDF7F9FA5FF000054D
:10469000FEF7ACFCFDF7F8FA216B401A142804D39E
:1046A000FDF7F2FA2063FEF79BFF60780128EFD157
:1046B00072B61A496846FBF765FD657062B66846D2
:1046C000FEF7F4FCE4E700002001002024000020B5
:1046D000680100200D0A53544D33324631303320E7
:1046E0006475616C20736572766F20636F6E74728F
:1046F0006F6C6C65722073746172740D0A00000037
:1047000053656E6420636F6D6D616E643A20532C47
:1047100039302C39300D0A00000C0140B000002067
:104720002DE9F04D0E460023A0F5000C4FF000716E
:10473000354684B002464FF07E5401EB45014FF000
:104740007F48BCF1FE4F80F09F81B1F1804FC0F0F7
:10475000DB81FE490144B1F5005F40F2A78200F51C
:104760008021C90C01F00F07C1F307117F39A2EBBB
:10477000C15501EB030B3846FCF7C9FA6FF0030192
:10478000FCF744F84FF07E51FBF778FF01460290AA
:104790002846FBF7C5FF019028460299FBF76EFFFC
:1047A00000F5006A6FF30B0A009051460298FBF780
:1047B000B7FF2946FBF762FF02904FF07E50009949
:1047C000FBF7E6FF014600900198FBF7AFFF00F50D
:1047D00000656FF30B0528460299FBF7A7FF0290CF
:1047E00051462846FBF7A2FF0199FBF79CFF02996F
:1047F000FBF796FF0099FBF799FF014601902846C9
:10480000FBF73CFF01460290FBF790FF8246D04940
:10481000FBF78CFFCF49FBF731FF5146FBF786FFD3
:10482000824600212846FBF7F1FF0090514602988E
:10483000FBF77CFF054600210198FBF7E7FF2946BF
:10484000FBF71CFF824601460098FBF717FF00F5B7
:1048500000656FF30B0529460098FBF761FF514691
:10486000FBF70CFF8246BC492846FBF75FFF009030
:10487000BA495046FBF75AFF8246B9492846FBF72A
:1048800055FF5146FBF7FAFE824601460098FBF7BA
:10489000F5FE00F500656FF30B0529460098FBF760
:1048A0003FFF5146FBF7EAFE8246AE48784450F897
:1048B000371000EBC700019147684FEA0B10FCF777
:1048C00026FA009039465046FBF7D8FE2946FBF7FA
:1048D000D5FE0199FBF7D2FE0099FBF7CFFE00F55C
:1048E000006B6FF30B0B58460099FBF719FF01990A
:1048F000FBF716FF2946FBF713FF3946FBF710FFBE
:104900005146FBF710FF06F5006782466FF30B0771
:1049100039463046FBF704FF002100900846FCF7BB
:104920007DFA00F00C0639465846FBF7FFFE0546B7
:1049300020F00040B0F18B4F0ADDB8EB400F07D3F9
:104940004FF08B4060F31E052F464FF0000A1FE02A
:1049500038460099FBF792FE5146FBF7E7FE074603
:1049600058460099FBF7E2FE3946FBF787FE824680
:1049700001462846FBF782FE00F500676FF30B0740
:1049800039462846FBF7CCFE5146FBF777FE8246B8
:1049900031460C20FCF742FA51463846FBF76EFED2
:1049A000FCF7E2F906460511FCF7B1F93946FBF7C9
:1049B000BAFE5146FBF762FE07466B49FBF7B6FEAF
:1049C0006A49FBF75BFE3946FBF7B0FE6849FBF727
:1049D00055FE3946FBF7AAFE0146664806F00F066B
:1049E000784450F82600FBF7A1FE6349794451F85A
:1049F0002610FBF743FE6149794451F82610FBF776
:104A00003DFE05F17D01FC2908D22946FBF7FEFE9B
:104A100004B02146BDE8F04DFBF788BE05F1BF01AB
:104A2000B1F5BF7F16D82946FBF7F0FE2146FBF70C
:104A30007DFE0546B8EB450F1AD068000CD028461D
:104A4000FFF71AF9042808BFFFF749F9284604B010
:104A5000BDE8F08D002D0BDA0220FFF755F9FFF7C6
:104A60003EF90146204604B061F31E00BDE8F08D1A
:104A70000220FFF749F9FFF72DF90146204604B05F
:104A800061F31E00BDE8F08DB1F1804F3CD300BF53
:104A900000F1FF41B1F1FE4F21D200BF20F00042F2
:104AA000C5F3C75110467F290DDB9729BFF651AEDC
:104AB000C1F196014FF0010C0CFA01F1A1F1010CCA
:104AC0001CEA050F07D00120FFF71EF904B0BDE86E
:104AD000F04DFFF7FBB8294218BF294C39E64100D9
:104AE0001CBF4FF08071B1EB400F09D91B21FBF7C0
:104AF0008DFE02466FF01A0310F0004FCED128E66B
:104B0000BCF1FE4F18D224E6B1F1007F0ED336F08F
:104B1000004105D006F0004141F0FC552E46B7E7B4
:104B2000410018BFB8EB400F78D8B1E7B1F1807FF2
:104B300038BFA5F50006ABD320F000416FF0FF4C65
:104B4000104C01EB0C03A3422FD31DE0001080C0DA
:104B50007EE24C3EABAAAA3E00B038423BAA3842A5
:104B6000D49AB8BBCC040000FC596337C9FF753A2E
:104B70001872313D980400004C040000000400004D
:104B8000000080BFFFFF3F0025F000439C44A44588
:104B90000BD3B0F17E5F18BF5FEA450C3ED0B1F198
:104BA000FF4F98BFB3F1FF4F05D904B03146BDE8C0
:104BB000F04DFFF789B8B0F1FF4F0FD0C5F3C751E3
:104BC0007F2909DB972911DAC1F19601012202FA46
:104BD00001F14A1E2A4205D0002108E015F0004FDD
:104BE00055D128E0294218BF012100D1022110F53A
:104BF000000F14D020B3B0F1004F27D010F1814F37
:104C00004ED04FF0FE41B1EB400F94BF0120002089
:104C1000012101EBE571884239D10CE040E015F04B
:104C2000004F02D0012936D031E0012902BF3F48B0
:104C300004B0BDE8F08D4FF0FF4004B0BDE8F08D4A
:104C400015F000400ED104B0BDE8F08DB5F1FF4F76
:104C50001DD015F5000F05D015F0004F14D009B187
:104C6000012907D00220FFF74FF804B0BDE8F04D4E
:104C7000FFF725B80220FFF747F8FFF720F804B048
:104C800080F00040BDE8F08D09B1012903D004B0E7
:104C90000020BDE8F08D04B04FF00040BDE8F08D7D
:104CA00004B04FF07E50BDE8F08D00BF4FF07E5154
:104CB000FBF736FD05466FF00101FBF7A7FD1C4928
:104CC000FBF731FD2946FBF731FD4FF07C51FBF737
:104CD0002AFD074629460846FBF728FD80F00040DC
:104CE0003946FBF723FD824612492846FBF71EFD95
:104CF000074611495046FBF719FD82460F492846E1
:104D0000FBF714FD5146FBF7B9FC05460146384652
:104D1000FBF7B4FC00F5006B6FF30B0B59463846FC
:104D2000FBF7FEFC2946FBF7A9FCECE5000080FF41
:104D3000ABAAAA3E00B0B8413BAAB841D49A38BB4E
:104D4000010202030405060708090A0B0C0D0E0FE9
:104D50001010010202030405060708090A0B0C0DD6
:104D60000E0F1010000000000000000001020304FC
:104D7000060708090000000001020304000000000B
:104D8000000000000000B33FB2BE7D3A00002E409C
:104D9000DFCF513800007E40BF51FABA00E0A44096
:104DA00019DAC3BA00E0C840C2ED8AB90040EB404E
:104DB000CD1F2CBA001006412AFFFABA00C01541D7
:104DC000DFCFD13700D024419A97703A0050334159
:104DD00089478E3600404141E75B9D3800B04E4127
:104DE000C00A98B900A05B41558F943A00306841E1
:104DF000DA92C0BA0040744162B3C63A0000803F04
:104E000000A0853F00908B3F00C0913F0030983F4D
:104E100000F09E3F00F0A53F0050AD3F0000B53FC1
:104E20000000BD3F0060C53F0020CE3F0040D73F9F
:104E300000C0E03F00C0EA3F0020F53F0000000056
:104E40007D36AC397D3C3839EBDCF438320A7E39BA
:104E5000124C26399B6AED39A4EE83397F661E39E0
:104E6000F6398A392B426539A48211395B991F3989
:104E7000C3EECD39DDE7C637A5A22F390000803F4C
:104E8000C3AA853FC2958B3FD3C3913FF037983F6C
:104E900032F59E3FD7FEA53F3F58AD3FF304B53FE7
:104EA000A408BD3F2A67C53F8C24CE3FFD44D73FB1
:104EB000DFCCE03FC7C0EA3F7D25F53FDDDDDDDD2E
:104EC000DCBBBBDDDDDDDDDDDDDDDDDD988888889B
:104ED0008888888877777777778888888555555642
:104EE0006666666666666666666888888333333299
:104EF00022222222222222222228888D543A25642C
:104F00002E256420483A25642E2564204D51325FB9
:104F10004144433A2564204D51325F563A252E32A2
:104F200066204D51325F52533A252E3266204D5144
:104F3000325F50504D3A252E326620414C41524D41
:104F40003A25640D0A000000E6ADA5E8BF9BE79492
:104F5000B5E69CBAEFBC9A252E3166C2B020E69623
:104F6000B9E590913D256420E58D95E6ADA5E5BBBD
:104F7000B6E697B63D25646D7320E689A7E8A18C57
:104F8000E5AE8CE688900D0A00000000AC4F0008EA
:104F90000000002070000000E83C00081C500008E1
:104FA0007000002040050000F83C000800000100EF
:104FB00000000101000000010100000101000000EB
:104FC00001010000000100000001010000000000DC
:104FD0000000000000000000000000005A00000077
:104FE0005A0000005A0000005A00000000000000B3
:104FF00000000000000000006666E63F00000000C0
:10500000000000000100000010000000000000008F
:0C50100000127A00000000000000000008
:04000005080000ED02
:00000001FF
